:020000040800F2
:10000000002800202D140008ED120008F31200084B
:10001000F9120008FF120008051300080000000094
:100020000000000000000000000000000B130008AA
:100030001713000800000000231300082F13000806
:10004000751400087514000875140008751400086C
:10005000751400087514000875140008751400085C
:10006000751400087514000875140008751400084C
:10007000751400087514000875140008751400083C
:10008000751400087514000875140008751400082C
:10009000751400087514000875140008751400081C
:1000A000751400087514000875140008751400080C
:1000B0003D130008751400080000000075140008C6
:1000C000751400080000000000000000751400080E
:1000D00000000000751400087514000800000000FE
:1000E000751400087514000875140008000000005D
:1000F0000000000000000000000000000000000000
:0C01000000000000000000005FF808F1A3
:10010C0010B5054C237833B9044B13B10448AFF345
:10011C0000800123237010BD1C0000200000000093
:10012C00BC2A000808B5034B1BB103490348AFF3C5
:10013C00008008BD0000000020000020BC2A000840
:10014C0080B400AF0C4B1E221A600C4B05221A60B7
:10015C000B4B19221A60084B1B680A4A1360074B99
:10016C001B68094A1360064B1B68084A136000BFE2
:10017C00BD4680BC704700BF800000207800002086
:10018C007C000020700000206C0000207400002017
:10019C0080B400AF1E4B1B68042B20D0042B2BDC2F
:1001AC00022B02D0032B0DD026E01A4B1B68013317
:1001BC00184A1360174B1B68632B1FDD154B00226D
:1001CC001A601BE0144B1B680133134A1360124B6B
:1001DC001B68632B14DD104B00221A6010E00F4BD0
:1001EC001B6801330D4A13600C4B1B68632B09DD34
:1001FC000A4B00221A6005E000BF04E000BF02E0D9
:10020C0000BF00E000BF00BFBD4680BC704700BF10
:10021C0000000020700000206C0000207400002002
:10022C0080B400AF0E4B1B68022B04D10D4B1B6826
:10023C000D4A136010E00A4B1B68032B04D10B4BC7
:10024C001B680B4A136007E0054B1B68042B03D19A
:10025C00084B1B68084A136000BFBD4680BC704742
:10026C000000002070000020800000206C000020A6
:10027C0078000020740000207C00002080B500AFC6
:10028C00494B1B78002B02D0012B18D024E0002006
:10029C0000F06AF90346002B1BD0434B01221A7065
:1002AC00424B1B680133414A1360404B1B68042BC3
:1002BC000FDD3E4B01221A6000F024FB09E0002008
:1002CC0000F052F90346002B05D1374B00221A706F
:1002DC0001E000BF00E000BF334B5B78022B27D05E
:1002EC00022B37DC002B02D0012B0CD032E001208A
:1002FC0000F03AF90346002B2ED02B4B01225A70FA
:10030C00FFF746FF28E0012000F02EF90346002BF2
:10031C0002D1254B00225A70012000F03FF9034610
:10032C00002B1BD0204B02225A70FFF731FF15E037
:10033C00012000F019F90346002B02D11A4B0022C0
:10034C005A70012000F02AF90346002B08D0FFF761
:10035C001FFF05E000BF04E000BF02E000BF00E0AB
:10036C0000BF114B9B78002B02D0012B0CD018E056
:10037C00022000F0F9F80346002B0FD00A4B0122A3
:10038C009A70FFF74DFF09E0022000F0EDF80346EC
:10039C00002B05D1044B00229A7001E000BF00E055
:1003AC0000BF00BF80BD00BF38000020000000204F
:1003BC0080B483B000AF00237B6020E0144A7B68DC
:1003CC00134401221A70134A7B68134401221A70D9
:1003DC00114A7B68134401221A70104A7B6813443B
:1003EC0001221A700E4A7B68134400221A700D4ABF
:1003FC007B68002122F813107B6801337B607B68DB
:10040C00022BDBDD00BF00BF0C37BD4680BC704744
:10041C003C00002040000020440000204800002048
:10042C004C0000205000002080B582B000AF0023AB
:10043C007B6081E0454A7B6813441978444A7B68A9
:10044C0013440A461A70434A7B68134419783F4A8E
:10045C007B6813440A461A707B68002B0BD1012170
:10046C003D4801F0EDFA034619463A4A7B681344BD
:10047C000A461A7019E07B68012B0BD10221364811
:10048C0001F0DEFA03461946324A7B6813440A46E9
:10049C001A700AE00421304801F0D2FA03461946DA
:1004AC002C4A7B6813440A461A702A4A7B68134408
:1004BC001A7826497B680B441B789A4212D1244A3D
:1004CC007B6813441A7821497B680B441B789A4249
:1004DC0008D1204A7B6813441978204A7B6813445E
:1004EC000A461A701D4A7B6813441B78002B16D1E0
:1004FC001B4A7B6832F81330C72B0AD8184A7B6822
:10050C0032F81330013399B2154A7B6822F8131074
:10051C000FE0144A7B68134401221A7009E0104A58
:10052C007B68002122F813100E4A7B6813440022CA
:10053C001A707B6801337B607B68022B7FF77AAF84
:10054C0000BF00BF0837BD4680BD00BF440000207F
:10055C004800002040000020000C01403C0000201E
:10056C00500000204C00002080B483B000AF034644
:10057C00FB71FB79022B01D9002307E0FB79064ABA
:10058C00D35C002B0CBF01230023DBB218460C37C5
:10059C00BD4680BC704700BF3C00002080B483B0D7
:1005AC0000AF0346FB71FB79022B01D9002310E04D
:1005BC00FB790A4AD35C012B0AD1FB79084A00214A
:1005CC0022F81310FB79054A0021D154012300E0D5
:1005DC00002318460C37BD4680BC70474C000020E9
:1005EC005000002080B582B000AF78607B68092B8A
:1005FC0000F2808101A252F823F000BF31060008FE
:10060C0079060008C1060008090700085107000810
:10061C0099070008E107000829080008710800087C
:10062C00B908000800220121B54801F020FA002287
:10063C000221B34801F01BFA00220421B04801F05A
:10064C0016FA00220821AE4801F011FA00221021FE
:10065C00AB4801F00CFA00222021A94801F007FA5E
:10066C0001224021A64801F002FA44E101220121B5
:10067C00A34801F0FCF900220221A14801F0F7F98E
:10068C00002204219E4801F0F2F9012208219C4825
:10069C0001F0EDF901221021994801F0E8F901224D
:1006AC002021974801F0E3F901224021944801F000
:1006BC00DEF920E100220121914801F0D8F9002255
:1006CC0002218F4801F0D3F9012204218C4801F05A
:1006DC00CEF9002208218A4801F0C9F90022102124
:1006EC00874801F0C4F901222021854801F0BFF9A7
:1006FC0000224021824801F0BAF9FCE000220121DD
:10070C007F4801F0B4F9002202217D4801F0AFF9D5
:10071C00002204217A4801F0AAF900220821784825
:10072C0001F0A5F901221021754801F0A0F9012270
:10073C002021734801F09BF900224021704801F000
:10074C0096F9D8E0012201216D4801F090F90022C0
:10075C0002216B4801F08BF900220421684801F05A
:10076C0086F901220821664801F081F90122102145
:10077C00634801F07CF900222021614801F077F9EF
:10078C00002240215E4801F072F9B4E00022012100
:10079C005B4801F06CF901220221594801F067F91C
:1007AC0000220421564801F062F900220821544825
:1007BC0001F05DF901221021514801F058F9002295
:1007CC0020214F4801F053F9002240214C4801F000
:1007DC004EF990E000220121494801F048F901222C
:1007EC000221474801F043F900220421444801F05A
:1007FC003EF900220821424801F039F9002210216B
:10080C003F4801F034F9002220213D4801F02FF936
:10081C00002240213A4801F02AF96CE00022012123
:10082C00374801F024F900220221354801F01FF964
:10083C0000220421324801F01AF901220821304823
:10084C0001F015F9012210212D4801F010F90122B7
:10085C0020212B4801F00BF901224021284801F0FE
:10086C0006F948E000220121254801F000F9002298
:10087C000221234801F0FBF800220421204801F05A
:10088C00F6F8002208211E4801F0F1F80022102190
:10089C001B4801F0ECF800222021194801F0E7F880
:1008AC0000224021164801F0E2F824E00022012148
:1008BC00134801F0DCF800220221114801F0D7F8AE
:1008CC00002204210E4801F0D2F8002208210C4825
:1008DC0001F0CDF801221021094801F0C8F80022DE
:1008EC002021074801F0C3F800224021044801F000
:1008FC00BEF800E000BF00BF0837BD4680BD00BF9A
:10090C000008014080B400AF084B1B68084A136014
:10091C00084B1B68084A1360084B00221A70084BDE
:10092C0002221A7000BFBD4680BC704780000020B8
:10093C00040000207C00002008000020560000204D
:10094C000C00002080B500AFAB4B1B68013BAA4AE2
:10095C001360AA4B1B68013BA84A1360A84B1B7879
:10096C00022B69D0022B00F39880002B02D0012BB4
:10097C0031D092E000224FF48071A24801F077F858
:10098C0001224FF400719F4801F071F801224FF4DD
:10099C0080619C4801F06BF8974B1B68002B7EDA4A
:1009AC00994B1B68013B944A1360954B02221A70B9
:1009BC0001224FF48071934801F059F801224FF451
:1009CC000071904801F053F800224FF480618D487B
:1009DC0001F04DF863E001224FF48071894801F079
:1009EC0046F800224FF40071864801F040F80122CD
:1009FC004FF48061834801F03AF87F4B1B68002B61
:100A0C004FDA824B1B68013B7B4A13607C4B002204
:100A1C001A7000224FF480717A4801F028F80122F4
:100A2C004FF40071774801F022F801224FF48061F5
:100A3C00744801F01CF834E001224FF480717148C5
:100A4C0001F015F801224FF400716E4801F00FF817
:100A5C0000224FF480616B4801F009F8664B1B686B
:100A6C00002B20DA6A4B1B68013B634A1360644B12
:100A7C0001221A7001224FF48071624800F0F7FFD6
:100A8C0000224FF400715F4800F0F1FF01224FF497
:100A9C0080615C4800F0EBFF05E000BF04E000BFA4
:100AAC0002E000BF00E000BF5A4B1B78022B69D05C
:100ABC00022B00F39880002B02D0012B31D092E056
:100ACC0000224FF400614F4800F0D1FF01224FF497
:100ADC0080514C4800F0CBFF01224FF400514948A3
:100AEC0000F0C5FF454B1B68002B7EDA464B1B689C
:100AFC00013B424A1360474B02221A7001224FF409
:100B0C000061404800F0B3FF01224FF480513D4892
:100B1C0000F0ADFF00224FF400513A4800F0A7FF5F
:100B2C0063E001224FF40061364800F0A0FF002280
:100B3C004FF48051334800F09AFF01224FF40051DA
:100B4C00304800F094FF2D4B1B68002B4FDA2F4BD5
:100B5C001B68013B294A13602E4B00221A7000229D
:100B6C004FF40061274800F082FF01224FF48051BE
:100B7C00244800F07CFF01224FF40051214800F082
:100B8C0076FF34E001224FF400611E4800F06FFF45
:100B9C0001224FF480511B4800F069FF00224FF4F2
:100BAC000051184800F063FF144B1B68002B20DA2F
:100BBC00174B1B68013B114A1360164B01221A702C
:100BCC0001224FF400610F4800F051FF00224FF456
:100BDC0080510C4800F04BFF01224FF400510948A2
:100BEC0000F045FF05E000BF04E000BF02E000BFDD
:100BFC0000E000BF00BF80BD040000200800002002
:100C0C0056000020000C01407C00002080000020D9
:100C1C00780000200C00002080B483B000AF786016
:100C2C00144B1B68013B032B1CD801A252F823F078
:100C3C004D0C00085F0C0008650C00086B0C0008DC
:100C4C007B68012B02D10C4B1B680DE00B4B1B6816
:100C5C000AE00B4B1B6807E00A4B1B6804E00A4BCD
:100C6C001B6801E000BF002318460C37BD4680BC52
:100C7C00704700BF00000020040000200800002086
:100C8C00700000206C0000207400002080B500AFC4
:100C9C00524B1B68013B032B00F2958001A252F8CA
:100CAC0023F000BFC10C0008D70C00082B0D000866
:100CBC007F0D00084A4B1B68012B40F08680FA2000
:100CCC0000F046FBFFF73EFE7FE0454B1B68012B17
:100CDC007DD1FA2000F03CFB4FF48071414800F0CC
:100CEC00DEFE4FF400613F4800F0D9FE01224FF4C4
:100CFC0000713C4800F0BBFE01224FF48061394882
:100D0C0000F0B5FE01224FF48051364800F0AFFEE2
:100D1C0001224FF40051334800F0A9FE57E0304B4C
:100D2C001B68012B55D1FA2000F012FB4FF4007117
:100D3C002C4800F0B4FE4FF480512A4800F0AFFE6E
:100D4C0001224FF48071274800F091FE01224FF4EC
:100D5C008061244800F08BFE01224FF40061214891
:100D6C0000F085FE01224FF400511E4800F07FFE7A
:100D7C002FE01B4B1B68012B2DD1FA2000F0E8FA59
:100D8C004FF48061174800F08AFE4FF4005115486B
:100D9C0000F085FE01224FF40071124800F067FE4E
:100DAC0001224FF480710F4800F061FE01224FF4D4
:100DBC0080510C4800F05BFE01224FF400610948A1
:100DCC0000F055FE07E000BF06E000BF04E000BFE6
:100DDC0002E000BF00E000BF00BF80BD00000020AB
:100DEC0060000020000C014080B500AF804B1B68F8
:100DFC00042B00F2FA8001A252F823F01D0E000819
:100E0C007B0E0008E30E0008410F0008A90F000834
:100E1C0000224FF48051774800F029FE00224FF455
:100E2C000061744800F023FE00224FF48061714889
:100E3C0000F01DFE00224FF400716E4800F017FE0A
:100E4C0001224FF480716B4800F011FE0120FFF776
:100E5C00E3FE0346684A82FB03129210DB17D31A97
:100E6C001846FFF7BFFB624B01221A60BEE000225E
:100E7C004FF480715F4800F0FAFD00224FF480516E
:100E8C005C4800F0F4FD00224FF40061594800F07A
:100E9C00EEFD00224FF48061564800F0E8FD01227F
:100EAC004FF40071534800F0E2FD0120FFF7B4FE4F
:100EBC000146514B83FB01239A10CB17D21A1346D0
:100ECC009B0013445B00CA1A1046FFF78BFB484B80
:100EDC0002221A608AE000224FF40071454800F0AB
:100EEC00C6FD00224FF48071424800F0C0FD002284
:100EFC004FF480513F4800F0BAFD00224FF40061DE
:100F0C003C4800F0B4FD01224FF48061394800F0F8
:100F1C00AEFD0220FFF780FE0346374A82FB031228
:100F2C009210DB17D31A1846FFF75CFB304B0322E9
:100F3C001A605BE000224FF480612E4800F097FDB0
:100F4C0000224FF400712B4800F091FD00224FF469
:100F5C008071284800F08BFD00224FF48051254809
:100F6C0000F085FD01224FF40061224800F07FFD66
:100F7C000220FFF751FE01461F4B83FB01239A1001
:100F8C00CB17D21A13469B0013445B00CA1A1046A7
:100F9C00FFF728FB164B04221A6027E000224FF4BF
:100FAC000061144800F063FD00224FF48061114889
:100FBC0000F05DFD00224FF400710E4800F057FD6B
:100FCC0000224FF480710B4800F051FD01224FF4C8
:100FDC008051084800F04BFD084B1B681846FFF782
:100FEC0001FB034B00221A6000E000BF00BF80BD74
:100FFC00580000200008014067666666000000206B
:10100C0080B500AF00F032FA00F024F800F0AAF836
:10101C0000F05CF80D4801F087F9FFF7C9F9FFF70C
:10102C008FF8012000F094F9012000F0A5F9FFF7EA
:10103C0025F9074B1B68012B04D1FFF7D5FE0120C6
:10104C0000F09AF9FFF722FEF1E700BF84000020C0
:10105C006800002080B590B000AF07F1180328227B
:10106C000021184601F01CFD3B1D00221A605A603D
:10107C009A60DA601A610223BB610123BB62102300
:10108C00FB6200237B6307F11803184600F020FD78
:10109C000346002B01D000F0C7F80F237B60002320
:1010AC00BB600023FB6000233B6100237B613B1D85
:1010BC000021184600F08CFF0346002B01D000F0F5
:1010CC00B3F800BF4037BD4680BD000080B586B088
:1010DC0000AF07F1080300221A605A609A60DA60C8
:1010EC003B4600221A605A601D4B4FF080421A603A
:1010FC001B4B40F21F325A60194B00229A60184B5E
:10110C000922DA60164B00221A61154B00229A61F3
:10111C00134801F0B9F80346002B01D000F084F815
:10112C004FF48053BB6007F1080319460C4801F0DB
:10113C004FFA0346002B01D000F076F800233B60F9
:10114C0000237B603B461946054801F01BFC034617
:10115C00002B01D000F068F800BF1837BD4680BDE9
:10116C008400002080B586B000AF07F10803002290
:10117C001A605A609A60DA60284B9B69274A43F0E0
:10118C0004039361254B9B6903F004037B607B682C
:10119C00224B9B69214A43F0080393611F4B9B69C7
:1011AC0003F008033B603B68002241F67F711C484A
:1011BC0000F05DFC00224FF47C511A4800F057FC03
:1011CC0041F67F73BB600123FB6000233B6102236C
:1011DC007B6107F108031946114800F0B7FA0723A1
:1011EC00BB600023FB6000233B6107F10803194639
:1011FC000C4800F0ABFA4FF47C53BB600123FB604E
:10120C0000233B6102237B6107F108031946054863
:10121C0000F09CFA00BF1837BD4680BD001002409C
:10122C0000080140000C014080B400AF72B600BF52
:10123C00FEE7000080B485B000AF154B9B69144AE3
:10124C0043F001039361124B9B6903F00103BB60F4
:10125C00BB680F4BDB690E4A43F08053D3610C4BD8
:10126C00DB6903F080537B607B680A4B5B68FB6037
:10127C00FB6823F0E063FB60FB6843F08063FB607A
:10128C00044AFB68536000BF1437BD4680BC7047EE
:10129C00001002400000014080B584B000AF7860BF
:1012AC007B681B68B3F1804F13D10C4BDB690B4A85
:1012BC0043F00103D361094BDB6903F00103FB60CD
:1012CC00FB68002200211C2000F009FA1C2000F011
:1012DC0022FA00BF1037BD4680BD00BF001002408F
:1012EC0080B400AFFEE780B400AFFEE780B400AF7F
:1012FC00FEE780B400AFFEE780B400AFFEE780B439
:10130C0000AF00BFBD4680BC704780B400AF00BFCB
:10131C00BD4680BC704780B400AF00BFBD4680BCEA
:10132C00704780B500AF00F0E7F800BF80BD00004B
:10133C0080B500AF024801F043F800BF80BD00BF8C
:10134C008400002080B400AF00BFBD4680BC704755
:10135C0080B483B000AF7860054A7B681360054B9E
:10136C0000221A6000BF0C37BD4680BC704700BF1E
:10137C005C0000206000002080B483B000AF786077
:10138C00054A7B681360054B00221A6000BF0C37BE
:10139C00BD4680BC704700BF640000206800002080
:1013AC0080B400AF114B1B68002B0BDD0F4B1B687F
:1013BC00013B0E4A13600D4B1B68002B02D10C4BEA
:1013CC0001221A600B4B1B68002B0BDD094B1B68B1
:1013DC00013B084A1360074B1B68002B02D1064BDC
:1013EC0001221A6000BFBD4680BC70475C00002023
:1013FC0060000020640000206800002080B582B0EE
:10140C0000AF7860FFF7CCFF7B681B68B3F1804FAF
:10141C0001D1FFF709F800BF0837BD4680BD0000B9
:10142C00FFF790FF0B480C490C4A002302E0D458FC
:10143C00C4500433C4188C42F9D3094A094C002314
:10144C0001E013600432A242FBD301F005FBFFF76D
:10145C00D7FD7047000000201C000020002B000866
:10146C001C000020D0000020FEE7000080B500AF7B
:10147C00084B1B68074A43F010031360032000F06D
:10148C0023F90F2000F008F8FFF7D4FE00231846CC
:10149C0080BD00BF0020024080B582B000AF7860F4
:1014AC00124B1A68124B1B7819464FF47A73B3FB24
:1014BC00F1F3B2FBF3F3184600F03BF90346002BB3
:1014CC0001D001230EE07B680F2B0AD8002279682B
:1014DC004FF0FF3000F003F9064A7B6813600023DD
:1014EC0000E0012318460837BD4680BD10000020DF
:1014FC00180000201400002080B400AF054B1B78AE
:10150C001A46054B1B681344034A136000BFBD46C3
:10151C0080BC704718000020CC00002080B400AFC5
:10152C00024B1B681846BD4680BC7047CC0000209F
:10153C0080B485B000AF78607B6803F00703FB6074
:10154C000C4BDB68BB60BA684FF6FF031340BB6003
:10155C00FB681A02BB68134343F0BF6343F40033C8
:10156C00BB60044ABB68D36000BF1437BD4680BC67
:10157C00704700BF00ED00E080B400AF044BDB68A7
:10158C001B0A03F007031846BD4680BC704700BF1A
:10159C0000ED00E080B483B000AF0346FB7197F917
:1015AC000730002B0BDBFB7903F01F02064997F980
:1015BC0007305B09012000FA02F241F8232000BF3A
:1015CC000C37BD4680BC704700E100E080B483B0AE
:1015DC0000AF03463960FB7197F90730002B0ADB2B
:1015EC003B68DAB20C4997F907301201D2B20B44BE
:1015FC0083F800230AE03B68DAB20849FB7903F070
:10160C000F03043B1201D2B20B441A7600BF0C3705
:10161C00BD4680BC704700BF00E100E000ED00E07B
:10162C0080B489B000AFF860B9607A60FB6803F0F1
:10163C000703FB61FB69C3F10703042B28BF0423D9
:10164C00BB61FB690433062B02D9FB69033B00E049
:10165C0000237B614FF0FF32BB6902FA03F3DA43DC
:10166C00BB681A407B699A404FF0FF317B6901FAE5
:10167C0003F3D9437B680B40134318462437BD460C
:10168C0080BC704780B582B000AF78607B68013B4E
:10169C00B3F1807F01D301230FE00A4A7B68013B41
:1016AC0053600F214FF0FF30FFF790FF054B0022E6
:1016BC009A60044B07221A60002318460837BD466F
:1016CC0080BD00BF10E000E080B582B000AF786054
:1016DC007868FFF72DFF00BF0837BD4680BD80B589
:1016EC0086B000AF0346B9607A60FB7300237B6160
:1016FC00FFF742FF78617A68B9687869FFF790FF65
:10170C00024697F90F3011461846FFF75FFF00BFEE
:10171C001837BD4680BD80B582B000AF0346FB7163
:10172C0097F907301846FFF735FF00BF0837BD465D
:10173C0080BD80B582B000AF78607868FFF7A2FFFB
:10174C00034618460837BD4680BD000080B48BB0F8
:10175C0000AF7860396000237B6200233B6248E174
:10176C0001227B6A02FA03F3FB613B681B68FA698E
:10177C001340BB61BA69FB699A4240F037813B6800
:10178C005B68A34A93425ED0A14A934275D8A14AA2
:10179C00934258D09F4A93426FD89F4A934252D05B
:1017AC009D4A934269D89D4A93424CD09B4A93429E
:1017BC0063D89B4A934246D0994A93425DD8122BE8
:1017CC002AD8122B59D801A252F823F0531800082A
:1017DC002D1800083F180008811800088718000809
:1017EC008718000887180008871800088718000851
:1017FC008718000887180008871800088718000841
:10180C008718000887180008871800088718000830
:10181C003518000849180008824A934213D02CE06E
:10182C003B68DB683B6229E03B68DB6804333B6266
:10183C0024E03B68DB6808333B621FE03B68DB68F5
:10184C000C333B621AE03B689B68002B02D10423EB
:10185C003B6213E03B689B68012B05D108233B627C
:10186C007B68FA691A6109E008233B627B68FA69B4
:10187C005A6103E000233B6200E000BFBB69FF2B11
:10188C0001D87B6801E07B6804337B61BB69FF2B6B
:10189C0002D87B6A9B0002E07B6A083B9B003B61A1
:1018AC007B691A680F213B6901FA03F3DB431A4089
:1018BC00396A3B6901FA03F31A437B691A603B6886
:1018CC005B6803F08053002B00F09080564B9B69B3
:1018DC00554A43F001039361534B9B6903F0010399
:1018EC00BB60BB68514A7B6A9B08023352F82330B9
:1018FC00FB607B6A03F003039B000F2202FA03F3E5
:10190C00DB43FA681340FB607B68494A93420DD075
:10191C007B68484A934207D07B68474A934201D17F
:10192C00022304E0032302E0012300E000237A6A8F
:10193C0002F0030292009340FA681343FB603B49A8
:10194C007B6A9B080233FA6841F823203B685B688A
:10195C0003F48013002B06D0384B9A683749BB69C7
:10196C0013438B6006E0354B9A68BB69DB43334904
:10197C0013408B603B685B6803F40013002B06D0AC
:10198C002E4BDA682D49BB691343CB6006E02B4B19
:10199C00DA68BB69DB4329491340CB603B685B6861
:1019AC0003F40033002B06D0244B5A682349BB693F
:1019BC0013434B6006E0214B5A68BB69DB431F495C
:1019CC0013404B603B685B6803F48033002B06D0FC
:1019DC001A4B1A681949BB6913430B6006E0174B85
:1019EC001A68BB69DB43154913400B607B6A0133F2
:1019FC007B623B681A687B6A22FA03F3002B7FF444
:101A0C00AFAE00BF00BF2C37BD4680BC704700BFD7
:101A1C0000003210000031100000221000002110D4
:101A2C0000001210000011100010024000000140D4
:101A3C0000080140000C014000100140000401406E
:101A4C0080B485B000AF78600B467B807B689A6869
:101A5C007B881340002B02D00123FB7301E0002391
:101A6C00FB73FB7B18461437BD4680BC704780B4B3
:101A7C0083B000AF78600B467B8013467B707B781D
:101A8C00002B03D07A887B681A6103E07B881A04E8
:101A9C007B681A6100BF0C37BD4680BC704780B4B0
:101AAC0085B000AF78600B467B807B68DB68FB60A1
:101ABC007A88FB6813401A04FB68D9437B880B4077
:101ACC001A437B681A6100BF1437BD4680BC70474F
:101ADC0080B586B000AF78607B68002B01D1012304
:101AEC006CE27B681B6803F00103002B00F087801D
:101AFC00924B5B6803F00C03042B0CD08F4B5B6890
:101B0C0003F00C03082B12D18C4B5B6803F480336D
:101B1C00B3F5803F0BD1894B1B6803F40033002BCA
:101B2C006CD07B685B68002B68D1012346E27B6834
:101B3C005B68B3F5803F06D1804B1B687F4A43F44A
:101B4C00803313602EE07B685B68002B0CD17B4BE1
:101B5C001B687A4A23F480331360784B1B68774AEE
:101B6C0023F4802313601DE07B685B68B3F5A02F22
:101B7C000CD1724B1B68714A43F4802313606F4B7A
:101B8C001B686E4A43F4803313600BE06B4B1B688D
:101B9C006A4A23F480331360684B1B68674A23F44A
:101BAC00802313607B685B68002B13D0FFF7B6FCB7
:101BBC00386108E0FFF7B2FC02463B69D31A642B8C
:101BCC0001D90323FAE15D4B1B6803F40033002BAE
:101BDC00F0D014E0FFF7A2FC386108E0FFF79EFCA0
:101BEC0002463B69D31A642B01D90323E6E1534B1C
:101BFC001B6803F40033002BF0D100E000BF7B68BE
:101C0C001B6803F00203002B63D04C4B5B6803F0A2
:101C1C000C03002B0BD0494B5B6803F00C03082B17
:101C2C001CD1464B5B6803F48033002B16D1434B1D
:101C3C001B6803F00203002B05D07B681B69012B8A
:101C4C0001D00123BAE13D4B1B6823F0F8027B68FD
:101C5C005B69DB00394913430B603AE07B681B6915
:101C6C00002B20D0364B01221A60FFF757FC38614D
:101C7C0008E0FFF753FC02463B69D31A022B01D94B
:101C8C0003239BE12D4B1B6803F00203002BF0D0C8
:101C9C002A4B1B6823F0F8027B685B69DB00274941
:101CAC0013430B6015E0264B00221A60FFF736FC3D
:101CBC00386108E0FFF732FC02463B69D31A022B6D
:101CCC0001D903237AE11D4B1B6803F00203002B9F
:101CDC00F0D17B681B6803F00803002B3AD07B68BB
:101CEC009B69002B19D0174B01221A60FFF716FCC9
:101CFC00386108E0FFF712FC02463B69D31A022B4D
:101D0C0001D903235AE10D4B5B6A03F00203002B4C
:101D1C00F0D0012000F09AFA1CE00A4B00221A6065
:101D2C00FFF7FCFB38610FE0FFF7F8FB02463B695D
:101D3C00D31A022B08D9032340E100BF0010024044
:101D4C0000004242800442429E4B5B6A03F0020355
:101D5C00002BE9D17B681B6803F00403002B00F017
:101D6C00A6800023FB75974BDB6903F08053002B97
:101D7C000DD1944BDB69934A43F08053D361914B63
:101D8C00DB6903F08053BB60BB680123FB758E4B92
:101D9C001B6803F48073002B18D18B4B1B688A4A89
:101DAC0043F480731360FFF7B9FB386108E0FFF769
:101DBC00B5FB02463B69D31A642B01D90323FDE022
:101DCC00814B1B6803F48073002BF0D07B68DB68BD
:101DDC00012B06D17B4B1B6A7A4A43F00103136239
:101DEC002DE07B68DB68002B0CD1764B1B6A754AA7
:101DFC0023F001031362734B1B6A724A23F0040332
:101E0C0013621CE07B68DB68052B0CD16D4B1B6AE5
:101E1C006C4A43F0040313626A4B1B6A694A43F031
:101E2C00010313620BE0674B1B6A664A23F0010344
:101E3C001362644B1B6A634A23F0040313627B68CE
:101E4C00DB68002B15D0FFF769FB38610AE0FFF760
:101E5C0065FB02463B69D31A41F28832934201D9A1
:101E6C000323ABE0574B1B6A03F00203002BEED0AD
:101E7C0014E0FFF753FB38610AE0FFF74FFB024613
:101E8C003B69D31A41F28832934201D9032395E07E
:101E9C004C4B1B6A03F00203002BEED1FB7D012B94
:101EAC0005D1484BDB69474A23F08053D3617B68EB
:101EBC00DB69002B00F08180424B5B6803F00C0364
:101ECC00082B61D07B68DB69022B46D13F4B00228B
:101EDC001A60FFF723FB386108E0FFF71FFB02468F
:101EEC003B69D31A022B01D9032367E0354B1B68DE
:101EFC0003F00073002BF0D17B681B6AB3F5803FB5
:101F0C0008D1304B5B6823F400327B689B682D4909
:101F1C0013434B602B4B5B6823F474127B68196A78
:101F2C007B685B6A0B43274913434B60274B0122A9
:101F3C001A60FFF7F3FA386108E0FFF7EFFA024690
:101F4C003B69D31A022B01D9032337E01D4B1B68C5
:101F5C0003F00073002BF0D02FE01C4B00221A6012
:101F6C00FFF7DCFA386108E0FFF7D8FA02463B6964
:101F7C00D31A022B01D9032320E0124B1B6803F068
:101F8C000073002BF0D118E07B68DB69012B01D1C9
:101F9C00012313E00B4B5B68FB60FB6803F480329E
:101FAC007B681B6A9A4206D1FB6803F470127B684B
:101FBC005B6A9A4201D0012300E0002318461837CF
:101FCC00BD4680BD001002400070004060004242DF
:101FDC0080B584B000AF786039607B68002B01D18C
:101FEC000123D0E06A4B1B6803F007033A689A425E
:101FFC0010D9674B1B6823F0070265493B681343F4
:10200C000B60634B1B6803F007033A689A4201D0DC
:10201C000123B8E07B681B6803F00203002B20D07F
:10202C007B681B6803F00403002B05D0594B5B68DD
:10203C00584A43F4E06353607B681B6803F0080361
:10204C00002B05D0534B5B68524A43F460535360EA
:10205C00504B5B6823F0F0027B689B684D4913433F
:10206C004B607B681B6803F00103002B40D07B683E
:10207C005B68012B07D1474B1B6803F40033002B23
:10208C0015D101237FE07B685B68022B07D1414BA4
:10209C001B6803F00073002B09D1012373E03D4B47
:1020AC001B6803F00203002B01D101236BE0394BB9
:1020BC005B6823F003027B685B68364913434B6013
:1020CC00FFF72CFAF8600AE0FFF728FA0246FB68E3
:1020DC00D31A41F28832934201D9032353E02D4B9A
:1020EC005B6803F00C027B685B689B009A42EBD147
:1020FC00274B1B6803F007033A689A4210D2244B13
:10210C001B6823F0070222493B6813430B60204BEA
:10211C001B6803F007033A689A4201D0012332E0AE
:10212C007B681B6803F00403002B08D0194B5B6819
:10213C0023F4E0627B68DB68164913434B607B68D1
:10214C001B6803F00803002B09D0124B5B6823F4C7
:10215C0060527B681B69DB000E4913434B6000F037
:10216C0021F802460B4B5B681B0903F00F030A496D
:10217C00CB5C22FA03F3094A1360094B1B6818461F
:10218C00FFF78AF9002318461037BD4680BD00BF03
:10219C000020024000100240D42A00081000002049
:1021AC001400002080B487B000AF0023FB60002334
:1021BC00BB6000237B6100237B6000233B611E4BD3
:1021CC005B68FB60FB6803F00C03042B02D0082B4C
:1021DC0003D027E0194B3B6127E0FB689B0C03F015
:1021EC000F03174AD35C7B60FB6803F48033002B2E
:1021FC0010D0114B5B685B0C03F00103114AD35CEC
:10220C00BB607B680D4A02FB03F2BB68B2FBF3F3C5
:10221C007B6104E07B680C4A02FB03F37B617B6906
:10222C003B6102E0054B3B6100BF3B6918461C3724
:10223C00BD4680BC704700BF0010024000127A00FF
:10224C00E42A0008F42A000800093D0080B485B097
:10225C0000AF78600A4B1B680A4AA2FB03235B0A97
:10226C007A6802FB03F3FB6000BFFB685A1EFA603E
:10227C00002BF9D100BF00BF1437BD4680BC70479E
:10228C0010000020D34D621080B582B000AF786092
:10229C007B68002B01D1012341E07B6893F83D3032
:1022AC00DBB2002B06D17B68002283F83C207868D7
:1022BC00FEF7F2FF7B68022283F83D207B681A68E8
:1022CC007B6804331946104600F06EFA7B680122D5
:1022DC0083F846207B68012283F83E207B6801222C
:1022EC0083F83F207B68012283F840207B68012221
:1022FC0083F841207B68012283F842207B6801220D
:10230C0083F843207B68012283F844207B680122F8
:10231C0083F845207B68012283F83D200023184672
:10232C000837BD4680BD000080B485B000AF786032
:10233C007B6893F83D30DBB2012B01D0012335E0F3
:10234C007B68022283F83D207B681B68DA687B6817
:10235C001B6842F00102DA607B681B68164A9342E4
:10236C0009D07B681B68B3F1804F04D07B681B6875
:10237C00124A934211D17B681B689B6803F00703D8
:10238C00FB60FB68062B10D07B681B681A687B68A7
:10239C001B6842F001021A6007E07B681B681A6830
:1023AC007B681B6842F001021A6000231846143740
:1023BC00BD4680BC704700BF002C014000040040AB
:1023CC0080B582B000AF78607B681B681B6903F036
:1023DC000203022B22D17B681B68DB6803F002032B
:1023EC00022B1BD17B681B686FF002021A617B68A1
:1023FC0001221A777B681B689B6903F00303002B8F
:10240C0003D0786800F0B4F905E0786800F0A7F91B
:10241C00786800F0B6F97B6800221A777B681B6835
:10242C001B6903F00403042B22D17B681B68DB6857
:10243C0003F00403042B1BD17B681B686FF00402B0
:10244C001A617B6802221A777B681B689B6903F40C
:10245C004073002B03D0786800F08AF905E07868A7
:10246C0000F07DF9786800F08CF97B6800221A770F
:10247C007B681B681B6903F00803082B22D17B685F
:10248C001B68DB6803F00803082B1BD17B681B68F7
:10249C006FF008021A617B6804221A777B681B684C
:1024AC00DB6903F00303002B03D0786800F060F9BC
:1024BC0005E0786800F053F9786800F062F97B6801
:1024CC0000221A777B681B681B6903F01003102B22
:1024DC0022D17B681B68DB6803F01003102B1BD127
:1024EC007B681B686FF010021A617B6808221A77F0
:1024FC007B681B68DB6903F44073002B03D078689E
:10250C0000F036F905E0786800F029F9786800F0F9
:10251C0038F97B6800221A777B681B681B6903F00B
:10252C000103012B0ED17B681B68DB6803F00103F0
:10253C00012B07D17B681B686FF001021A61786868
:10254C00FEF75CFF7B681B681B6903F08003802B24
:10255C000ED17B681B68DB6803F08003802B07D1EE
:10256C007B681B686FF080021A61786800F06BFA68
:10257C007B681B681B6903F04003402B0ED17B6802
:10258C001B68DB6803F04003402B07D17B681B689A
:10259C006FF040021A61786800F0FCF87B681B68E9
:1025AC001B6903F02003202B0ED17B681B68DB68B2
:1025BC0003F02003202B07D17B681B686FF02002EF
:1025CC001A61786800F036FA00BF0837BD4680BD46
:1025DC0080B584B000AF786039600023FB737B68F2
:1025EC0093F83C30012B01D10223B4E07B6801222B
:1025FC0083F83C207B68022283F83D207B681B68B3
:10260C009B68BB60BB6823F07703BB60BB6823F49B
:10261C007F43BB607B681B68BA689A603B681B6829
:10262C00B3F5005F3ED0B3F5005F00F28780B3F5E1
:10263C00805F00F08680B3F5805F7FD8702B1AD056
:10264C00702B7BD8602B50D0602B77D8502B3CD084
:10265C00502B73D8402B58D0402B6FD8302B64D0D4
:10266C00302B6BD8202B60D0202B67D8002B5CD064
:10267C00102B5AD062E07B6818683B6899683B68FD
:10268C005A683B68DB6800F05EF97B681B689B68E6
:10269C00BB60BB6843F07703BB607B681B68BA68A0
:1026AC009A604FE07B6818683B6899683B685A6889
:1026BC003B68DB6800F047F97B681B689A687B68AD
:1026CC001B6842F480429A603CE07B6818683B6867
:1026DC0059683B68DB681A4600F0BEF87B681B68DB
:1026EC005021184600F015F92CE07B6818683B68FF
:1026FC0059683B68DB681A4600F0DCF87B681B689D
:10270C006021184600F005F91CE07B6818683B68EE
:10271C0059683B68DB681A4600F09EF87B681B68BA
:10272C004021184600F0F5F80CE07B681A683B680D
:10273C001B681946104600F0ECF803E00123FB730C
:10274C0000E000BF7B68012283F83D207B680022FB
:10275C0083F83C20FB7B18461037BD4680BD80B407
:10276C0083B000AF786000BF0C37BD4680BC7047AB
:10277C0080B483B000AF786000BF0C37BD4680BC1E
:10278C00704780B483B000AF786000BF0C37BD4693
:10279C0080BC704780B483B000AF786000BF0C374A
:1027AC00BD4680BC7047000080B485B000AF786037
:1027BC0039607B681B68FB607B68254A934207D0B5
:1027CC007B68B3F1804F03D07B68224A934208D1D7
:1027DC00FB6823F07003FB603B685B68FA6813438B
:1027EC00FB607B681A4A934207D07B68B3F1804F39
:1027FC0003D07B68174A934208D1FB6823F44073DB
:10280C00FB603B68DB68FA681343FB60FB6823F0F2
:10281C0080023B685B691343FB607B68FA681A6053
:10282C003B689A687B68DA623B681A687B689A62D4
:10283C007B68074A934203D13B681A697B681A6329
:10284C007B6801225A6100BF1437BD4680BC7047BB
:10285C00002C01400004004080B487B000AFF86049
:10286C00B9607A60FB681B6A7B61FB681B6A23F0AA
:10287C000102FB681A62FB689B693B613B6923F0B0
:10288C00F0033B617B681B013A6913433B617B6935
:10289C0023F00A037B617A69BB6813437B61FB6895
:1028AC003A699A61FB687A691A6200BF1C37BD46A7
:1028BC0080BC704780B487B000AFF860B9607A60B4
:1028CC00FB681B6A7B61FB681B6A23F01002FB68C8
:1028DC001A62FB689B693B613B6923F470433B6163
:1028EC007B681B033A6913433B617B6923F0A003AC
:1028FC007B61BB681B017A6913437B61FB683A6996
:10290C009A61FB687A691A6200BF1C37BD4680BCAD
:10291C00704780B485B000AF786039607B689B6885
:10292C00FB60FB6823F07003FB603A68FB681343A1
:10293C0043F00703FB607B68FA689A6000BF1437AA
:10294C00BD4680BC704780B487B000AFF860B960FA
:10295C007A603B60FB689B687B617B6923F47F43F7
:10296C007B613B681A027B681A43BB6813437A6924
:10297C0013437B61FB687A699A6000BF1C37BD46C4
:10298C0080BC704780B485B000AF786039607B68DC
:10299C0093F83C30012B01D1022341E07B680122EA
:1029AC0083F83C207B68022283F83D207B681B68FF
:1029BC005B68FB607B681B689B68BB60FB6823F0F3
:1029CC007003FB603B681B68FA681343FB607B6811
:1029DC001B68FA685A607B681B68144A934209D0DA
:1029EC007B681B68B3F1804F04D07B681B68104A6E
:1029FC0093420CD1BB6823F08003BB603B685B68DF
:102A0C00BA681343BB607B681B68BA689A607B68C2
:102A1C00012283F83D207B68002283F83C200023B0
:102A2C0018461437BD4680BC704700BF002C0140CF
:102A3C000004004080B483B000AF786000BF0C3756
:102A4C00BD4680BC704780B483B000AF786000BFD7
:102A5C000C37BD4680BC704770B500260C4D0D4C34
:102A6C00641BA410A64209D100F022F800260A4DDE
:102A7C000A4C641BA410A64205D170BD55F8043B4A
:102A8C0098470136EEE755F8043B98470136F2E7D4
:102A9C00F82A0008F82A0008F82A0008FC2A00087E
:102AAC0003460244934200D1704703F8011BF9E737
:102ABC00F8B500BFF8BC08BC9E467047F8B500BF1F
:082ACC00F8BC08BC9E467047EF
:102AD40000000000000000000102030406070809CA
:102AE40002030405060708090A0B0C0D0E0F10104B
:042AF40001020000DB
:042AF80031010008A0
:042AFC000D010008C0
:102B0000010000001E00000019000000020000008B
:0C2B10000024F400100000000100000090
:040000050800142DAE
:00000001FF
